:020000040000FA
:1000000001288501860183160430850000308600B2
:1000100000308B00831207309F0005190D2810282F
:10002000051D10280614061115280519152818286D
:10003000051D1828861406101D2805191D282028BE
:10004000051D2028061586100D285530A00000003B
:1000500000000000000000000000000000000000A0
:100060000000000000000000000000000000000090
:100070000000000000000000000000000000000080
:100080000000000000000000000000000000000070
:100090000000000000000000000000000000000060
:1000A0000000000000000000000000000000000050
:1000B0000000000000000000000000000000000040
:1000C0000000000000000000000000000000000030
:1000D0000000000000000000000000000000000020
:1000E0000000000000000000000000000000000010
:1000F0000000000000000000000000000000000000
:1001000000000000000000000000000000000000EF
:1001100000000000000000000000000000000000DF
:1001200000000000000000000000A00B27280800CD
:02400E00103F61
:00000001FF
