:1000000001288501860183160730850000308600AF
:1000100000308B00831207309F003230A200023084
:10002000A3003230A400B720B7206430A60005300A
:10003000A7004B30A50001308600B72002308600B3
:10004000B72004308600B72008308600B720103073
:100050008600B72020308600B72040308600B720C9
:1000600080308600B720A603A50B1B284B30A500C7
:100070006430A600FF308600B720B720A70B3A28CF
:100080000530A70080308600B72040308600B720BA
:1000900020308600B72010308600B7200830860058
:1000A000B72004308600B72002308600B720013028
:1000B0008600B720A603A50B42284B30A50064306C
:1000C000A600FF308600B720B7208601B720B720F2
:1000D000FF308600B720B7208601B720B720FF3059
:1000E0008600B720B7208601B720B720A70B61286C
:1000F0000530A700FF308600A3208601AD20A40BA9
:100100007A283230A400A30AA20B7A283230A40045
:100110000130A2008601B720FF308600A3208601AF
:10012000AD20A40B8C283230A400A20AA30B8C288B
:100130003230A4003230A2000230A300A70B7A288C
:100140000530A7001B282208A1000430A0000000F1
:10015000A00BA728A10BA52808002308A1000430A4
:10016000A0000000A00BA728A10BA52808002608C6
:10017000A1006430A0000000A00BBB28A10BB9288F
:100180000800FF3FFF3FFF3FFF3FFF3FFF3FFF3FB5
:08400000FF3FFF3FFF3FFF3FC0
:02400E00103F61
:00000001FF