:100000000C9466000C948E000C948E000C948E0060
:100010000C948E000C948E000C948E000C948E0028
:100020000C948E000C948E000C948E000C9418018D
:100030000C948E000C949E030C948E000C948E00F5
:100040000C94F7060C948E000C94F5080C943C0963
:100050000C948E000C948E000C948E000C948E00E8
:100060000C948E000C948E000000000024002700E9
:100070002A0000000000250028002B0000000000DE
:1000800023002600290004040404040404040202DA
:100090000202020203030303030301020408102007
:1000A0004080010204081020010204081020000012
:1000B0000007000201000003040600000000000029
:1000C0000000F100BC05E405790AB50511241FBE46
:1000D000CFEFD8E0DEBFCDBF11E0A0E0B1E0E8E7B0
:1000E000FFE102C005900D92AC32B107D9F713E0E1
:1000F000ACE2B1E001C01D92A334B107E1F710E01A
:10010000CAECD0E004C02297FE010E94740FC23CEA
:10011000D107C9F70E94CF0A0C94AF0F0C940000CE
:10012000A0E0B0E0E6E9F0E00C94800FEC01A880DC
:10013000B980CA80DB80A114B104C104D10441F4A8
:1001400084E2A82E89EDB82E8BE5C82E87E0D82E44
:10015000C601B5012DE133EF41E050E00E94570F99
:1001600027EA31E440E050E00E94160F7B018C0149
:10017000C601B5012DE133EF41E050E00E94570F79
:10018000CA01B9012CEE34EF4FEF5FEF0E94160F5A
:100190006E0D7F1D801F911F97FF04C0615070403E
:1001A00080409048688379838A839B839B01AC015C
:1001B0005F77B901CA01CDB7DEB7EAE00C949C0FB6
:1001C0000E94900008958EE091E00E9490000895B2
:1001D00060930E0170930F018093100190931101B1
:1001E000089580E090E0A8ECB2EC80932C0190930D
:1001F0002D01A0932E01B0932F010895FC01809151
:1002000030018C3090F482838F5F80933001815075
:1002100090E0FC01EE0FFF1FE80FF91FEF5CFE4FAF
:1002200088EB9BE09283818308958FEF828308950A
:100230001F920F920FB60F9211242F933F934F935B
:100240005F936F937F938F939F93AF93BF93EF933E
:10025000FF938091550187FF05C010928500109291
:1002600084002BC020915501332727FD30958091C4
:10027000300190E02817390704F58091550199273E
:1002800087FD9095FC01EE0FFF1FE80FF91FEF5C53
:10029000FE4F808186FF11C080915501992787FD0F
:1002A0009095FC01EE0FFF1FE80FF91FEF5CFE4F6A
:1002B00080818F7360E00E944D08809155018F5FAF
:1002C0008093550120915501332727FD309580916A
:1002D000300190E0281739070CF04EC0809155018D
:1002E0008C300CF049C020918400309185008091C1
:1002F0005501992787FD9095FC01EE0FFF1FE80F30
:10030000F91FEF5CFE4F81819281280F391F3093D6
:1003100089002093880080915501992787FD909549
:10032000FC01EE0FFF1FE80FF91FEF5CFE4F80810D
:1003300086FF2BC080915501992787FD9095FC0180
:10034000EE0FFF1FE80FF91FEF5CFE4F80818F73E8
:1003500061E00E944D0819C080E49CE905C08091CD
:100360008400909185000496909389008093880082
:100370008FEF8093550109C0809184009091850092
:10038000049680549C4940F3EACFFF91EF91BF91CE
:10039000AF919F918F917F916F915F914F913F911D
:1003A0002F910F900FBE0F901F9018950F931F93D2
:1003B0008C01FC01868160E00E944D0881E090E0A4
:1003C0000E943F07F801868161E00E944D0881E0AC
:1003D00090E00E943F07F801868160E00E944D088E
:1003E00084E690E00E943F071F910F910895CF92FD
:1003F000DF92EF92FF920F931F93CF93DF93D82E4C
:10040000C92E282F392FC9018C01C0E0D0E0E62E7B
:10041000FF24F801878161E00E940E08B7010C2ECD
:1004200002C0759567950A94E2F76170F8018781BB
:100430000E944D0821960F5F1F4FC830D10549F724
:100440008D2D9C2D0E94D601DF91CF911F910F9190
:10045000FF90EF90DF90CF900895CF92DF92EF92D0
:10046000FF920F931F93CF93DF93D82EC92E282F7F
:10047000392FC9018C01C0E0D0E0E62EFF24F8013D
:10048000878161E00E940E08B7010C2E02C07595AD
:1004900067950A94E2F76170F80187810E944D0820
:1004A00021960F5F1F4FC430D10549F78D2D9C2D2C
:1004B0000E94D601DF91CF911F910F91FF90EF9095
:1004C000DF90CF9008951F93CF93DF93EC01162F09
:1004D0008C81642F0E944D088D818F3F19F060E060
:1004E0000E944D088F8584FF05C0CE01612F0E94B8
:1004F000F7010EC0612F70E084E0759567958A95CD
:10050000E1F7CE010E942D02CE01612F0E942D0243
:10051000DF91CF911F91089541E00E94630281E035
:1005200090E0089540E00E9463020895FC01608914
:10053000862F8460808B6C60CF010E9492020895A8
:1005400061E00E94920280ED97E00E943F070895CB
:10055000CF93DF93EC01423018F08F8588608F874E
:100560004B8B1C8A222329F0413019F48F8584603B
:100570008F8780E593EC0E943F078C8160E00E94AA
:100580004D088E8160E00E944D088D818F3F19F0EB
:1005900060E00E944D086F8564FD1DC0CE0163E0E0
:1005A0000E942D0284E991E10E943F07CE0163E0A1
:1005B0000E942D0284E991E10E943F07CE0163E091
:1005C0000E942D0286E990E00E943F07CE0162E082
:1005D0000E942D0216C06062CE010E94920284E940
:1005E00091E10E943F076F856062CE010E949202F6
:1005F00086E990E00E943F076F856062CE010E940D
:1006000092026F856062CE010E94920284E0888B24
:10061000CE010E949602CE010E94A00282E0898B48
:10062000CE0166E00E949202DF91CF9108956F9211
:100630007F928F92AF92CF92EF920F931F93DF939F
:10064000CF93CDB7DEB73C01162F842FF30144833F
:1006500025830683E782C086A18682869D8593874F
:100660009E8594879F8595879889968761E00E94EB
:100670000E08F30185818F3F19F061E00E940E089A
:10068000F301868161E00E940E08112319F0F30145
:10069000178603C080E1F3018787C30160E141E071
:1006A00020E00E94A802CF91DF911F910F91EF905F
:1006B000CF90AF908F907F906F9008958F92AF9270
:1006C000CF92EF920F931F93CF93DF93DC01362FDE
:1006D000542F722F102FAE2C8C2C13961C921E921E
:1006E000129787E191E011969C938E9300D000D0F1
:1006F000EDB7FEB73196CDB7DEB7198211821282FF
:100700001382CD0161E0432F2FEF052FE72EC12E7D
:100710000E9417030F900F900F900F90DF91CF91D1
:100720001F910F91EF90CF90AF908F900895FC01A3
:100730001382609356011092580108951F920F92F0
:100740000FB60F9211242F933F934F935F936F93A4
:100750007F938F939F93AF93BF93EF93FF9381EA20
:100760009FEF9093850080938400809156010E94B2
:10077000A108482F8091590190915A0101969093B8
:100780005A01809359018091F3018C3418F085E06F
:1007900080935701809157018330D1F0843020F449
:1007A000823009F059C006C0843071F1853009F0FB
:1007B00053C04CC0442309F04FC08091590190911F
:1007C0005A018436910508F443C01092F3011EC00B
:1007D000413009F041C08091F301E82FF0E0209111
:1007E000590130915A01EE0FFF1FEA5AFE4F36832E
:1007F00025838F5F8093F30110925A011092590163
:1008000084E08093570128C04423B9F48091F30118
:10081000E82FF0E02091590130915A01EE0FFF1FAF
:10082000EA5AFE4F368325838F5F8093F30110923F
:100830005A011092590183E0E4CF809159019091BF
:100840005A018536910540F085E0DBCF442321F441
:1008500010925A011092590180915801882329F071
:10086000442311F42D9A01C02D98FF91EF91BF916F
:10087000AF919F918F917F916F915F914F913F9138
:100880002F910F900FBE0F901F901895EF92FF922F
:100890000F931F93FC01162FF42EE22E008311827A
:1008A00080E090E0A0E0B0E082839383A483B583EE
:1008B00086839783A087B1878DEC9CECACECBDE37D
:1008C00082879387A487B58766877787408B518B0C
:1008D000228B338B862F61E00E940E088F2D61E002
:1008E0000E940E088E2D61E00E940E08812F60E0AC
:1008F0000E944D088F2D60E00E944D088E2D60E013
:100900000E944D081F910F91FF90EF900895AF92B4
:10091000BF92CF92EF920F93CF93DF93EC015B01E5
:100920008130910509F019C18FEF6F3F780709F009
:1009300014C180E090E0A8ECB2EC80939002909318
:100940009102A0939202B093930284EF91E063E04E
:1009500070E044E050E025E030E001E00E94460411
:1009600088E092E06BE070E04AE050E029E030E09F
:100970000E9446048CE192E00E94FE0081E292E037
:100980000E94FE0086E292E00E94FE008BE292E06E
:100990006CE04BE025E004E053E0E52E32E0C32EAE
:1009A0000E945E0380E492E062E070E00E949703A0
:1009B0001092450210924402D0934702C09346021F
:1009C0001092490210924802D0934B02C0934A02FF
:1009D00025E020934C02B0926C02A0926B028DE253
:1009E00092EBA6E6B1E480934D0290934E02A09361
:1009F0004F02B093500284E299EBACEDBFE38093D9
:100A0000510290935202A0935302B093540280E09B
:100A100090E0A0EAB1E48093550290935602A0932F
:100A20005702B093580284EB98ECA1E9B1E48093AB
:100A3000590290935A02A0935B02B0935C0283E444
:100A40009CE1ADEAB0E480935D0290935E02A093D6
:100A50005F02B093600280E090E0ACE8B2E4809383
:100A6000610290936202A0936302B09364028EEFDE
:100A700091E0909366028093650289EB90E09093F9
:100A800068028093670285E690E090936A02809303
:100A90006902D0936E02C0936D0220936F02B092F0
:100AA0008F02A0928E0286EE9FE3A8ECB0E48093C2
:100AB000700290937102A0937202B09373028FE25E
:100AC0009DEDACEEBFE38093740290937502A0930A
:100AD0007602B093770280E090E0A0E2B1E48093E8
:100AE000780290937902A0937A02B0937B028AEA0B
:100AF00092E8ACE0B1E480937C0290937D02A093F5
:100B00007E02B0937F028AE191E5A2ECB0E480938B
:100B1000800290938102A0938202B093830280E0CE
:100B200090E0ACE0B2E48093840290938502A093BD
:100B30008602B093870283E092E0909389028093CB
:100B4000880287EA90E090938B0280938A028AE57C
:100B500090E090938D0280938C02DF91CF910F9162
:100B6000EF90CF90BF90AF90089580E090E06FEF4E
:100B70007FEF0E948704089581E090E06FEF7FEFA0
:100B80000E948704089581EA92E040E052EC61E01F
:100B900070E00E946C0980E00E94EC070E94EE0C5D
:100BA00086E090E090931D0280931C0287E090E025
:100BB000909322028093210288E090E09093270294
:100BC000809326020895089580E090E0A8ECB2ECAE
:100BD0008093940290939502A0939602B09397020B
:100BE00008951F93182F62E00E940E08812F0E9423
:100BF000A10890E0813009F491E0892F1F910895B8
:100C00000F931F93182F062F61E00E940E08812F6B
:100C1000602F0E944D081F910F910895AF92BF92CF
:100C2000CF92DF92EF92FF920F931F930E94C30522
:100C300087E060E00E94000685E061E00E94000617
:100C400060E971E080E090E00E94840787E060E066
:100C50000E94000685E060E00E94000660E971E005
:100C600080E090E00E94840787E060E00E94000638
:100C700085E061E00E94000660E971E080E090E0BC
:100C80000E94840787E060E00E94000685E060E043
:100C90000E94000660E971E080E090E00E94840715
:100CA00087E060E00E94000685E061E00E940006A7
:100CB00060E971E080E090E00E94840788E060E0F5
:100CC0000E9400068AE060E00E9400068CE061E07D
:100CD0000E9400060F2EF0E0AF2EF0E0BF2EF0E0F5
:100CE000CF2EF0E0DF2EF02D8601750124C083E0C9
:100CF0000E94F10590E0A0E0B0E0BC01CD010E94AF
:100D0000F90D5B016C0181EA92E0B801A70122E0D4
:100D100030E00E94DB0C68E070E080E090E00E9430
:100D20008407C801B70120E030E040E85FE30E949B
:100D3000F80C7B018C01C801B70120E030E04AE7E4
:100D400054E40E945C0D8823E4F483E00E94F105E2
:100D5000882339F4C601B5010E94C80D61307105C0
:100D600051F4C801B70120E030E04AEF53E40E949B
:100D70005C0D882334F483E00E94F105882319F286
:100D8000B6CF88E060E00E9400068AE061E00E9441
:100D900000068CE060E00E94000680E00E94EC0704
:100DA00060ED77E080E090E00E94840788E061E0F9
:100DB0000E9400068AE060E00E9400068CE060E08D
:100DC0000E94000660ED77E080E090E00E948407DA
:100DD00087E061E00E94000685E060E00E94000676
:100DE00068E57BE180E090E00E94840721CF1F92BC
:100DF0000F920FB60F9211242F933F938F939F93CF
:100E0000AF93BF9380919C0290919D02A0919E020E
:100E1000B0919F023091A0020196A11DB11D232F18
:100E20002D5F2D3720F02D570196A11DB11D209368
:100E3000A00280939C0290939D02A0939E02B09387
:100E40009F028091980290919902A0919A02B0918C
:100E50009B020196A11DB11D809398029093990267
:100E6000A0939A02B0939B02BF91AF919F918F91F3
:100E70003F912F910F900FBE0F901F9018950197E3
:100E800039F0880F991F880F991F02970197F1F782
:100E90000895789484B5826084BD84B5816084BDF2
:100EA00085B5826085BD85B5816085BDEEE6F0E0E3
:100EB000808181608083E1E8F0E01082808182603F
:100EC0008083808181608083E0E8F0E080818160C0
:100ED0008083E1EBF0E0808184608083E0EBF0E0F0
:100EE000808181608083EAE7F0E080818460808394
:100EF000808182608083808181608083808180683E
:100F000080831092C1000895EF92FF920F931F9378
:100F1000CF93DF937B018C013FB7F89480919802C7
:100F200090919902A0919A02B0919B0226B5A89B3C
:100F300005C02F3F19F00196A11DB11D3FBFBA2F6B
:100F4000A92F982F8827820F911DA11DB11D52E056
:100F5000880F991FAA1FBB1F5A95D1F7EC0130C00B
:100F60000E94F60C3FB7F8948091980290919902F4
:100F7000A0919A02B0919B0226B5A89B05C02F3F75
:100F800019F00196A11DB11D3FBFBA2FA92F982FAF
:100F90008827820F911DA11DB11D32E0880F991F76
:100FA000AA1FBB1F3A95D1F78C1B9D0B885E9340FF
:100FB000B8F20894E108F10801091109C851DC4FA1
:100FC000E114F1040105110559F6DF91CF911F914C
:100FD0000F91FF90EF900895982F8E3008F09E505B
:100FE0009770809112018295880F880F807C892BE1
:100FF00080937C0080917A00806480937A00809155
:101000007A0086FDFCCF2091780040917900942FE2
:1010100080E030E0282B392BC9010895CF93DF936E
:10102000482F50E0CA0186569F4FFC0134914A5721
:101030005F4FFA018491882369F190E0880F991F2E
:10104000FC01E859FF4FA591B491FC01EE58FF4F08
:10105000C591D491662351F42FB7F8948C91932FB6
:10106000909589238C93888189230BC0623061F429
:101070002FB7F8948C91932F909589238C93888126
:10108000832B88832FBF06C09FB7F8948C91832B46
:101090008C939FBFDF91CF910895482F50E0CA01F4
:1010A00082559F4FFC012491CA0186569F4FFC0137
:1010B00094914A575F4FFA013491332309F440C0A9
:1010C000222351F1233071F0243028F42130A1F093
:1010D000223011F514C02630B1F02730C1F0243091
:1010E000D9F404C0809180008F7703C08091800084
:1010F0008F7D8093800010C084B58F7702C084B547
:101100008F7D84BD09C08091B0008F7703C080912E
:10111000B0008F7D8093B000E32FF0E0EE0FFF1F53
:10112000EE58FF4FA591B4912FB7F894662321F4A0
:101130008C919095892302C08C91892B8C932FBF21
:101140000895682F70E0CB0182559F4FFC012491D8
:10115000CB0186569F4FFC0144916A577F4FFB019C
:101160009491992319F420E030E03CC0222351F1FE
:10117000233071F0243028F42130A1F0223011F511
:1011800014C02630B1F02730C1F02430D9F404C0A7
:10119000809180008F7703C0809180008F7D809345
:1011A000800010C084B58F7702C084B58F7D84BD68
:1011B00009C08091B0008F7703C08091B0008F7D0F
:1011C0008093B000892F90E0880F991F84589F4F1B
:1011D000FC01A591B4918C9120E030E0842311F0C2
:1011E00021E030E0C901089508951F920F920FB6D3
:1011F0000F9211242F933F934F938F939F93EF93CD
:10120000FF938091C00082FD19C04091C60080917B
:10121000BF02282F30E02F5F3F4F2F733070809137
:10122000C00290E02817390759F0E091BF02F0E0C2
:10123000EF55FD4F42A32093BF0202C08091C6002C
:10124000FF91EF919F918F914F913F912F910F902F
:101250000FBE0F901F9018958091BF022091C00281
:1012600090E0805C9F4F821B91098F739070892B57
:1012700011F00E94F40808951F920F920FB60F927A
:1012800011242F938F939F93EF93FF939091C1021B
:101290008091C202981731F48091C1008F7D8093B4
:1012A000C10010C0E091C202F0E0ED5FFC4F208170
:1012B0008091C20290E001968F7390708093C20279
:1012C0002093C600FF91EF919F918F912F910F90E6
:1012D0000FBE0F901F901895AF92BF92DF92EF92C2
:1012E000FF920F931F93CF93DF93EC017A018B0151
:1012F000DD24403081EE580780E0680780E0780701
:1013000011F0DD24D39491E0A92EB12CE889F9895C
:10131000DD2069F0C5010C8C02C0880F991F0A946A
:10132000E2F7808360E079E08DE390E005C0108211
:1013300060E874E88EE190E0A80197010E94350F03
:10134000215030404040504056954795379527955D
:1013500080E12030380720F0DD2011F0DD24D6CFE9
:10136000EC85FD853083EE85FF8520831D8EEA891F
:10137000FB89408121E030E0C901088C02C0880F60
:10138000991F0A94E2F7482B4083EA89FB89408140
:10139000C901098C02C0880F991F0A94E2F7482BF3
:1013A0004083EA89FB894081C9010A8C02C0880F09
:1013B000991F0A94E2F7482B4083EA89FB898081D0
:1013C0000B8C02C0220F331F0A94E2F720952823CA
:1013D0002083DF91CF911F910F91FF90EF90DF90CD
:1013E000BF90AF900895FC01268D878D30E0205C82
:1013F0003F4F281B31092F733070C9010895FC013C
:10140000968D878D981719F42FEF3FEF06C0878DC3
:10141000E80FF11D82A1282F30E0C9010895DC01F9
:101420005E969C915E975F968C915F97981719F4E2
:101430002FEF3FEF10C05F968C915F97FD01E80F93
:10144000F11D92A15F968C915F978F5F8F735F966E
:101450008C93292F30E0C9010895DC015D968C91B1
:101460005D97882339F05096ED91FC9151978081DA
:1014700086FFF9CF5D961C920895DC0190968C91C1
:101480009097282F30E02F5F3F4F2F733070919649
:101490008C91919790E028173907C9F390968C9119
:1014A0009097FD01E80FF11DEE59FF4F6083909674
:1014B0002C9390975296ED91FC915397208181E067
:1014C00090E05B960C905B9702C0880F991F0A947E
:1014D000E2F7282B208381E05D968C935D975096F0
:1014E000ED91FC91519780818064808381E090E050
:1014F00008951092A4021092A30288EE93E0A0E057
:10150000B0E08093A5029093A602A093A702B093A7
:10151000A8028FE191E09093A2028093A102109221
:10152000C2028091C2028093C1021092C0028091D7
:10153000C0028093BF0285EC90E09093AE0280934E
:10154000AD0284EC90E09093B0028093AF0280EC07
:1015500090E09093B2028093B10281EC90E090937E
:10156000B4028093B30282EC90E09093B602809331
:10157000B50286EC90E09093B8028093B70284E0C5
:101580008093B90283E08093BA0287E08093BB0224
:1015900085E08093BC0281E08093BD020895CF93E3
:1015A000DF930E9449070E940E06CCE2D9E00E9418
:1015B000E3052097E1F30E942C09F9CFCF92DF9247
:1015C000EF92FF920F931F93CF93DF937C016B01F8
:1015D0008A01C0E0D0E00FC0D6016D916D01D70146
:1015E000ED91FC910190F081E02DC7010995C80FA4
:1015F000D91F015010400115110571F7CE01DF917F
:10160000CF911F910F91FF90EF90DF90CF900895B1
:10161000EF92FF920F931F938C01DC01ED91FC91EF
:101620000190F081E02D6DE009957C01D801ED91EC
:10163000FC910190F081E02DC8016AE009959C01C0
:101640002E0D3F1DC9011F910F91FF90EF9008953E
:10165000CF93DF93EC016115710519F420E030E0C0
:101660000FC0DB010D900020E9F71197A61BB70B07
:10167000E881F9810280F381E02DAD0109959C019B
:10168000C901DF91CF9108954F925F927F928F921F
:101690009F92AF92BF92CF92DF92EF92FF920F9301
:1016A0001F93DF93CF93CDB7DEB7A1970FB6F89412
:1016B000DEBF0FBECDBF2C01742ECB01223008F44B
:1016C0002AE019A231E2C32ED12CCC0EDD1E822ECF
:1016D0009924AA24BB24672D752FA50194010E948B
:1016E000350F79018A01C801B701A50194010E9453
:1016F000160F472D461B0894C108D1084A3014F430
:10170000405D01C0495CF6014083E114F10401052C
:10171000110521F07E2C5F2DC801DDCFC201B6017D
:101720000E94280BA1960FB6F894DEBF0FBECDBF66
:10173000CF91DF911F910F91FF90EF90DF90CF90AD
:10174000BF90AF909F908F907F905F904F90089543
:10175000DC012115310541F4ED91FC910190F081FE
:10176000E02D642F099508950E94440B0895CF92AF
:10177000DF92EF92FF920F931F93CF93DF93EC01D1
:101780006A017B012115310541F4E881F98101905D
:10179000F081E02D642F09951FC02A303105D1F466
:1017A00077FF17C0E881F9810190F081E02D6DE2AB
:1017B00009958C0144275527BA014C195D096E091A
:1017C0007F09CE012AE00E94440B9801280F391F9F
:1017D00004C02AE00E94440B9C01C901DF91CF9113
:1017E0001F910F91FF90EF90DF90CF9008957F921F
:1017F0008F929F92AF92BF92CF92DF92EF92FF9221
:101800000F931F93CF93DF934C017A018B01722EBC
:10181000CB01BA01A80197010E94120F882321F081
:10182000C40160E071E021C0C0E0D0E05701680170
:10183000E894D7F8C601B5012FEF3FEF4FE75FE718
:101840000E94120F882351F4C601B5012FEF3FEF1C
:101850004FE75FE70E945C0D181614F0C1E0D0E07E
:10186000219739F0C40164E071E00E94280BEC017B
:1018700093C0C801B7012FEF3FEF4FE75FE40E942D
:10188000AB0E181654F0C801B7012FEF3FEF4FE72A
:101890005FEC0E945C0D882324F4C40168E071E0D1
:1018A000E4CFC801B70120E030E040E050E00E9402
:1018B0005C0D87FD03C0C0E0D0E00EC0D401ED9107
:1018C000FC910190F081E02DC4016DE20995EC01DD
:1018D00017FB109517F9109520E030E040E05FE32A
:1018E000DD240BC0CA01B90120E030E040E251E440
:1018F0000E94600D9B01AC01D394D71498F3C801EA
:10190000B7010E94F80C5B016C010E94CD0D7B01B8
:101910008C01C401B801A7012AE030E00E94A80BA5
:10192000C80FD91F772039F0C4016CE071E00E9424
:10193000280BC80FD91FC801B7010E94F90D9B01E0
:10194000AC01C601B5010E94F70C24C020E030E0D4
:1019500040E251E40E94AF0E7B018C010E94C80D51
:101960005B016C01CC24B7FCC094DC2CC401B60133
:10197000A5012AE030E00E94B70BC80FD91FC601AD
:10198000B5010E94FB0D9B01AC01C801B7010E948B
:10199000F70C7A947720D1F6CE01DF91CF911F9189
:1019A0000F91FF90EF90DF90CF90BF90AF909F90FE
:1019B0008F907F900895EF92FF920F931F937C0179
:1019C0000E94F70B8C01C7010E94080B080F191F1A
:1019D000C8011F910F91FF90EF900895009729F093
:1019E000BC0180E090E00E94E800089508955058FE
:1019F000BB27AA270ED075C166D130F06BD120F07D
:101A000031F49F3F11F41EF45BC10EF4E095E7FB47
:101A100051C1E92F77D180F3BA17620773078407A2
:101A2000950718F071F49EF58FC10EF4E0950B2E1A
:101A3000BA2FA02D0B01B90190010C01CA01A00120
:101A40001124FF27591B99F0593F50F4503E68F17B
:101A50001A16F040A22F232F342F4427585FF3CFBC
:101A6000469537952795A795F0405395C9F77EF48D
:101A70001F16BA0B620B730B840BBAF09150A1F0D6
:101A8000FF0FBB1F661F771F881FC2F70EC0BA0F5C
:101A9000621F731F841F48F4879577956795B795E4
:101AA000F7959E3F08F0B3CF9395880F08F09927DC
:101AB000EE0F979587950895D9D008F481E00895A1
:101AC0000CD00FC107D140F0FED030F021F45F3FC1
:101AD00019F0F0C0511139C1F3C014D198F3992312
:101AE000C9F35523B1F3951B550BBB27AA276217E2
:101AF0007307840738F09F5F5F4F220F331F441F27
:101B0000AA1FA9F333D00E2E3AF0E0E830D091505E
:101B10005040E695001CCAF729D0FE2F27D0660F4B
:101B2000771F881FBB1F261737074807AB07B0E88A
:101B300009F0BB0B802DBF01FF2793585F4F2AF0A0
:101B40009E3F510568F0B6C000C15F3FECF3983E80
:101B5000DCF3869577956795B795F7959F5FC9F7FD
:101B6000880F911D9695879597F90895E1E0660F86
:101B7000771F881FBB1F621773078407BA0720F0FF
:101B8000621B730B840BBA0BEE1F88F7E095089568
:101B900004D06894B111D9C00895BCD088F09F5783
:101BA00090F0B92F9927B751A0F0D1F0660F771FA9
:101BB000881F991F1AF0BA95C9F712C0B13081F089
:101BC000C3D0B1E00895C0C0672F782F8827B85FD1
:101BD00039F0B93FCCF3869577956795B395D9F7EA
:101BE0003EF490958095709561957F4F8F4F9F4FF4
:101BF0000895E89409C097FB3EF490958095709500
:101C000061957F4F8F4F9F4F9923A9F0F92F96E948
:101C1000BB279395F695879577956795B795F111BD
:101C2000F8CFFAF4BB0F11F460FF1BC06F5F7F4F5A
:101C30008F4F9F4F16C0882311F096E911C077236C
:101C400021F09EE8872F762F05C0662371F096E875
:101C5000862F70E060E02AF09A95660F771F881F44
:101C6000DAF7880F9695879597F90895990F0008E8
:101C7000550FAA0BE0E8FEEF16161706E807F9075E
:101C8000C0F012161306E407F50798F0621B730BF9
:101C9000840B950B39F40A2661F0232B242B252B7A
:101CA00021F408950A2609F4A140A6958FEF811D1D
:101CB000811D089597F99F6780E870E060E00895BE
:101CC0009FEF80EC089500240A9416161706180654
:101CD0000906089500240A94121613061406050630
:101CE0000895092E0394000C11F4882352F0BB0FC1
:101CF00040F4BF2B11F460FF04C06F5F7F4F8F4F24
:101D00009F4F089557FD9058440F551F59F05F3F5E
:101D100071F04795880F97FB991F61F09F3F79F00D
:101D200087950895121613061406551FF2CF46958F
:101D3000F1DF08C0161617061806991FF1CF869511
:101D40007105610508940895E894BB2766277727F5
:101D5000CB0197F908958ADF08F48FEF08950BD02F
:101D6000C0CFB1DF28F0B6DF18F0952309F0A2CF7D
:101D7000A7CF1124EACFC6DFA0F3959FD1F3950F2B
:101D800050E0551F629FF001729FBB27F00DB11DFF
:101D9000639FAA27F00DB11DAA1F649F6627B00D8F
:101DA000A11D661F829F2227B00DA11D621F739F78
:101DB000B00DA11D621F839FA00D611D221F749F86
:101DC0003327A00D611D231F849F600D211D822FCD
:101DD000762F6A2F11249F5750408AF0E1F0882314
:101DE0004AF0EE0FFF1FBB1F661F771F881F915021
:101DF0005040A9F79E3F510570F05CCFA6CF5F3FE2
:101E0000ECF3983EDCF3869577956795B795F79553
:101E1000E7959F5FC1F7FE2B880F911D96958795DB
:101E200097F9089523DF880B990B0895629FD001DD
:101E3000739FF001829FE00DF11D649FE00DF11D85
:101E4000929FF00D839FF00D749FF00D659FF00D34
:101E50009927729FB00DE11DF91F639FB00DE11D21
:101E6000F91FBD01CF0111240895A1E21A2EAA1B6A
:101E7000BB1BFD010DC0AA1FBB1FEE1FFF1FA2173A
:101E8000B307E407F50720F0A21BB30BE40BF50B37
:101E9000661F771F881F991F1A9469F760957095C0
:101EA000809590959B01AC01BD01CF01089597FBF2
:101EB000092E05260ED057FD04D0D7DF0AD0001C0E
:101EC00038F450954095309521953F4F4F4F5F4FD7
:101ED0000895F6F790958095709561957F4F8F4F97
:101EE0009F4F0895EE0FFF1F0590F491E02D099488
:101EF0002F923F924F925F926F927F928F929F921A
:101F0000AF92BF92CF92DF92EF92FF920F931F9307
:101F1000CF93DF93CDB7DEB7CA1BDB0B0FB6F894B8
:101F2000DEBF0FBECDBF09942A88398848885F84F8
:101F30006E847D848C849B84AA84B984C884DF8069
:101F4000EE80FD800C811B81AA81B981CE0FD11D4D
:101F50000FB6F894DEBF0FBECDBFED01089510E0BF
:101F6000CAECD0E004C0FE010E94740F2296CC3C63
:081F7000D107C9F7F894FFCF77
:101F78006E616E00696E66006F7666002E00010065
:101F8800000001000000008C02DE0A000000003D95
:0C1F98000ADE0AF3090F0AFF092D0A00F7
:00000001FF
