:020000040000FA
:1000000001288501860183160430850000308600B2
:1000100000308B00831207309F00051D2B288610AF
:1000200006143F2006108614472047208610061528
:100030004F204F204F20061186155720572057205C
:100040005720861106154F204F204F200611861489
:10005000472047200D28861006146C206C206C2049
:100060006C206C200D28061186146C202B2886111C
:1000700006156C203328061186156C203728503061
:10008000A3005F20051D2B28A30B4128080050303A
:10009000A4005F20051D3328A40B49280800503018
:1000A000A5005F20051D3728A50B512808005030FA
:1000B000A6005F20051D3B28A60B592808003330F9
:1000C000A0000230A1005030A200A20B6528A10BB5
:1000D0006328A00B612808003730A7009030A800E3
:1000E0005330A900A90B7228A80B7028A70B6E2803
:0200F000080006
:02400E00103F61
:00000001FF
